:100000000C9463000C943B180C9414180C94B719BE
:100010000C94B7190C94B7190C948B000C948B00AA
:100020000C948B000C948B000C948B000C948B0024
:100030000C948B000C9490190C948B000C948B00F6
:100040000C946E210C948B000C948B000C948B0000
:100050000C948B000C948B000C948B000C948B00F4
:100060000C9462180C948B00000000002400270000
:100070002A0000000008000201000003040700003D
:1000800000000000000000000000230026002900FE
:1000900000000000250028002B00040404040404D0
:1000A0000404020202020202030303030303010227
:1000B00004081020408001020408102001020408F6
:1000C0001020C92AAD2A11241FBECFEFD8E0DEBF11
:1000D000CDBF11E0A0E0B1E0E4E3FCE502C0059093
:1000E0000D92AA33B107D9F728E0AAE3B1E001C025
:1000F0001D92AA31B207E1F710E0C2E6D0E004C0D9
:100100002197FE010E94022EC136D107C9F70E9435
:1001100012220C940D2E0C940000CF92DF92FF92CD
:100120000F931F93CF93DF93D82FC62FF42E61E048
:100130008C2F0E94D02061E08D2F0E94D02060E0A3
:100140008D2F0E94A12060E08C2F0E94A12007E04B
:1001500010E0CC24C394D12C60E08C2F0E94A1200D
:10016000B601002E01C0660F0A94EAF76F218D2FA9
:100170000E94A12061E08C2F0E94A12060E08D2FC1
:100180000E94A1200150110938F760E08C2FDF9107
:10019000CF911F910F91FF90DF90CF900C94A120F1
:1001A0002F923F924F925F926F927F928F929F9287
:1001B000AF92BF92CF92DF92EF92FF920F931F9375
:1001C000CF93DF93CDB7DEB763970FB6F894DEBF5A
:1001D0000FBECDBF2DB73EB73B8B2A8B80918000E1
:1001E0008F7780938000299A8BE490E00197F1F754
:1001F000809180008F7780938000299819821A82DD
:100200001B821C820E94BE0989830E94BE098A83C8
:100210000E94BE098B830E94BE098C83AE014F5F92
:100220005F4F6A01B12C0B2DE12CF12C0230C1F192
:100230000330C1F10130C1F10023C1F10630C1F139
:100240000830C1F10530C1F10430C1F10B30C1F10A
:100250000C30C1F10A30C1F10930C1F10031C1F1F6
:100260000131C1F10E30C1F10D30C1F10431C1F1E4
:100270000531C1F10331C1F10231C1F10931C1F1DF
:100280000A31C1F10831C1F10631C1F10D31C1F1BD
:100290000E31C1F10C31C1F10B31C1F115E437C0A0
:1002A00010E035C011E033C012E031C013E02FC0C0
:1002B00014E02DC015E02BC016E029C017E027C0C0
:1002C00018E025C019E023C01AE021C01BE01FC0C0
:1002D0001CE01DC01DE01BC01EE019C01FE017C0C0
:1002E00010E115C011E113C012E111C013E10FC0FC
:1002F00014E10DC015E10BC016E109C017E107C0FC
:1003000018E105C019E103C01AE101C01BE1812F0A
:100310000E948610D6012C9130E00E2C02C035953B
:1003200027950A94E2F720FF08C08A3021F08E3129
:1003300011F06AE009C06EE107C0843109F454C1CC
:10034000883209F451C164E1812F0E94B710BFEFD8
:10035000EB1AFB0A0F5FE8E0EE16F10409F066CF36
:10036000FFEFCF1ADF0A28E0B20E30E2B3125BCF04
:1003700048EE56E05E834D8360EE7FEF7C876B87AF
:1003800088EF9FEF98878F8394EF9987ACEEAA87C9
:1003900000EFB1E0BD8710E0212C312C812F0E94AD
:1003A00086108A3009F095C0809103018837A9F43E
:1003B000143120F088EE810F843020F480915901AF
:1003C0000E94F00B9A85943008F083C00E94320E90
:1003D000809159010E94F00B7CC09091E70693FF39
:1003E0003CC061E0812F0E94920F0E94E6211031F3
:1003F00038F461E0812F0E943E100E94F61369C01C
:100400001B3121F484E00E94CB2167C0183109F030
:1004100060C08091E70682FDE9C0EFEF2E1A3E0A28
:100420001F5FFD85FF5FFD870F5F2A852F5F2A878E
:1004300039853F5F39874D815E814B5F5F4F5E83BA
:100440004D836F8178856F5F7F4F78876F838B8552
:100450009C8502969C878B87A1CF183199F4809157
:100460005201882331F180915101882329F01092A3
:1004700051010E94ED091DC00E94ED0981E08093A9
:10048000510117C01A3111F482E011C01B3189F4F7
:10049000803519F41092030109C0843611F481E00B
:1004A00003C08A3519F488E08093030184E00E9438
:1004B000CB21F09003018091E706AFE0FA129AC0D9
:1004C000982F9670963009F095C0103110F40E9464
:1004D000A2146D856C3109F0A0CF10E0812F0E942D
:1004E0008610082F843109F05BC08091E70683FFF6
:1004F00014C060E0812F0E94920F0E94E62110310B
:1005000038F460E0812F0E943E100E94F61348C02C
:100510001B3109F045C084E019C01A3121F482E092
:100520000E94BB1A07C01B3129F484E00E94BB1A49
:1005300000934D010E940322882319F0193109F418
:10054000FEC680910301803521F481E00E94BB1A30
:1005500027C0853019F4103118F51EC0873059F4C2
:100560000E94F11D9CEF910F9430D0F4880F880FFA
:1005700060E0890F13C0823099F4103188F40E9432
:10058000E11D813029F460E0812F0E94770C08C0C2
:10059000833031F410925E0160E0812F0E94C71316
:1005A0001F5F1C3109F09ACFEA89FB890FB6F894D6
:1005B000FEBF0FBEEDBF63960FB6F894DEBF0FBE51
:1005C000CDBFDF91CF911F910F91FF90EF90DF9002
:1005D000CF90BF90AF909F908F907F906F905F90E3
:1005E0004F903F902F90089568E2AECE88E00E9431
:1005F000BB1A6FCF81FF2EC0BFE0FB1659F110313F
:10060000E0F441E060E0809142010E94F60A81112D
:1006100007C010934E011092E0060E9485110DC094
:10062000813021F4812F0E94B01207C0823029F45A
:10063000412F62E08F2D0E94830F043008F049CFD4
:10064000202F41E060E0809142010E94AE0B809338
:1006500042013FCF82FF0EC0103108F063C61E304A
:1006600029F480914E010E94B0125CC6812F0E9435
:10067000F00B58C6E1E0EF1560F4F8E0FF1609F45E
:1006800062C62CE3F21609F46EC632E8F31214C007
:1006900060C6103148F410934C01F11002C080E59F
:1006A00001C084E60E94F00B809103018C33E1F1DC
:1006B000823809F032C638C046E4F4121AC01C3041
:1006C00058F4612F80914C010E948F1480914C014D
:1006D0008F3011F00E94E40D5985543028F5612FB8
:1006E00080914C010E94D71380914C018F3079F496
:1006F0001BC06CE8F6120EC01031B0F480914C01B2
:1007000075E0879FF0011124E851F94F14830E948E
:10071000E40D0AC08EE1F81222C0103128F4412FF6
:1007200063E08BE00E94830F0430A8F0143111F4D1
:1007300082E803C0153121F48CE30E94F00BEDC573
:10074000163111F48EE1F9CF173109F0E6C540E01A
:1007500064E08BE043C48BE00E94F00BDBC590E5C6
:10076000F912D4C01931C1F480914C01E091E00636
:10077000A0E9EA9FF0011124B9E08B9FE00DF11D83
:100780001124E05AFD4F80850E94260B882331F00A
:1007900081E00E94CB2102C01031E0F1E090E00640
:1007A00080914C0170E9E79E70011124D701E9E0C6
:1007B0008E9FA00DB11D11249D01205A3D4F79013E
:1007C000D90118968C910E94260B90E040968215D4
:1007D000930504F18091E70680FFCCC50E94E11DDE
:1007E000F701E80FF11DE80FF11D8081CB84DC8457
:1007F000CE0CDF1CF60180830E94E11DF701E80F9B
:10080000F11DE80FF11D8181D60111968C9381E0D5
:100810000E94BB1AE090E00680914C01A82EB12CFA
:10082000CE2CD12CB0E9EB9E70011124F70129E008
:10083000829FE00DF11D1124AF01405A5D4F7A01F6
:10084000DA0118968C910E942A0B183020F50E942C
:10085000E11DF701E80FF11DE80FF11D8081282F40
:1008600030E0022C02C0359527950A94E2F720FF6C
:1008700009C021E030E0022C01C0220F0A94EAF7FF
:10088000821B08C021E030E0022C01C0220F0A9434
:10089000EAF7820F8083BF81B83008F03EC50E941E
:1008A000E11D99E09A9DA0019B9D500D112490E9B6
:1008B0009C9D90019D9D300D1124240F351F280F04
:1008C000311D280F311DF901EF59FD4F8081282F6F
:1008D00030E00F8002C0359527950A94E2F720FF9B
:1008E0000AC021E030E00F8002C0220F331F0A94BB
:1008F000E2F7821B09C021E030E00F8002C0220F26
:10090000331F0A94E2F7820F808307C5EAE5FE12DF
:1009100093C0B090E0061031D0F480914C01F0E922
:10092000BF9E60011124960149E0849F200D311D76
:100930001124B901605A7D4F6B01212F43E060E023
:10094000D60118968C910E94AE0BF6018087F3E0D9
:10095000FB1520F0043008F051C003C0023008F04D
:100960004DC080914C0120E9B29E70011124A70175
:1009700069E0869F400D511D1124DA01A05ABD4F38
:100980007D011896CC908C2D0E94260BD82E202FFE
:1009900045E064E08C2D0E94AE0BF7018087D816ED
:1009A00069F1D11009C08081828381818383808134
:1009B0008483818185831EC0F1E0DF1217C0D701D7
:1009C0008C9114968C93149711968C91119715967F
:1009D0008C93159712968C91129716968C93169766
:1009E00013968C91139717968C9308C0B2E0DB1284
:1009F00005C0F7018081868381818783FA85F43081
:100A000008F08BC480914C0120E9B29E7001112442
:100A1000A70169E0869F400D511D1124DA01A05AFB
:100A2000BD4F7D012F2F47E066E018968C910E9404
:100A3000AE0BF701808771C4F4E0FF120DC01031D6
:100A400008F06BC4AD81BE814C914095417061E06E
:100A5000812F0E94D42161C4B5E0FB1208C010317F
:100A600008F05BC461E0812F0E94C71356C4EBE01D
:100A7000FE1239C0103198F50E94E11D81110AC0A3
:100A8000AD81BE814C9145FB442740F981E0482768
:100A900060E222C0813051F4ED81FE8140814295B7
:100AA0004F708427482F417060E116C0823049F4AE
:100AB000AD81BE814C914095441F4427441F60E89E
:100AC0000BC0833061F4ED81FE81408146FB4427F9
:100AD00040F981E0482760E4812F0E94D42104304E
:100AE00008F024CE17C4F6E0FF1208C0103108F059
:100AF00014C4AD81BE8112961C920FC4B9E0FB12E2
:100B0000B1C0103108F0AAC00E94E11DE82E8DB6D8
:100B10009EB68091E006F29CF001F39CF00D11244A
:100B2000682E712C20E9829FE00DF11D1124E05AFE
:100B3000FD4FF0848F2D0E942A0BD82E8F2D0E94FE
:100B4000260B90E00196F82ED89EF00C1124CF2CA5
:100B5000D12C4DB75EB74C195D090FB6F8945EBF46
:100B60000FBE4DBF6DB77EB76F5F7F4F5B01CB018F
:100B70008C0D9D1DFB018E179F0799F4F50140E038
:100B800089E0829D9001839D300D112450E9569D8E
:100B9000C001579D900D1124280F391F205A3D4F39
:100BA00002C01192E8CFF416A1F0842F86958695A5
:100BB0008695D901A80FB11D8C9190E0542F5770E4
:100BC00002C0959587955A95E2F7817081934F5FA2
:100BD000EACF812F0E941F0CEE2019F08FEF9FEFBC
:100BE00002C081E090E04091E006E0E0F0E03C01EE
:100BF0006C0C7D1C89E0829D9001839D300D112439
:100C000070E9479F200D311D1124205A3D4F4E2F72
:100C1000EF15F8F4C3018E0F9F1FB6010E94EE2D51
:100C2000D501A80FB91F8C91813089F48E2F86953C
:100C300086958695D901A80FB11D477081E090E097
:100C400001C0880F4A95EAF79C91890F8C933196E1
:100C5000DECF0FB6F8949EBE0FBE8DBE023008F0F8
:100C60005CC358C38AE0F8129FC0103108F055C326
:100C70008DB69EB68091E00699E0929DF001939D1D
:100C8000F00D1124A82EB12C90E9899FE00DF11DE3
:100C90001124E05AFD4FF0848F2D0E942A0BE82E7C
:100CA0008F2D0E94260B90E00196782EE89E700C06
:100CB0001124E72CF12CADB7BEB7AE19BF090FB6A2
:100CC000F894BEBF0FBEADBFEDB7FEB731966F0152
:100CD000CF018E0D9F1DE817F90799F4F60140E04A
:100CE00089E0829D9001839D300D112450E95A9D29
:100CF000C0015B9D900D1124280F391F205A3D4FD4
:100D000002C01192E8CF7416A1F0842F86958695C3
:100D10008695D901A80FB11D8C9190E0542F577082
:100D200002C0959587955A95E2F7817081934F5F40
:100D3000EACF812F0E941F0C2091E006F1E0EF1A0C
:100D4000F108D601AE0DBF1D40E039E0329DC00173
:100D5000339D900D112430E9239F800D911D1124A6
:100D6000805A9D4F7416D1F02C912130A1F4242F7C
:100D7000269526952695FC01E20FF11D242F27705C
:100D800061E070E002C0660F771F2A95E2F79B01D1
:100D90003081230F20834F5F1197E4CF0FB6F89473
:100DA0009EBE0FBE8DBEB9C272E0F71224C01031D4
:100DB00008F0AEC20E94E11D811104C0812F0E9483
:100DC000412AA6C2813029F461E0812F0E94770C6C
:100DD0009FC2823029F4412F60E00E94830F98C2A5
:100DE000833009F095C281E080935E0161E0812F3C
:100DF0000E94C7138DC28CE0F81230C0809152015E
:100E0000882301F18BEE810F833058F48091040127
:100E1000893208F482C28150809304010E94552ACD
:100E20007CC2812F877F863021F087EF810F83304E
:100E300048F480910401803F28F48F5F809304017F
:100E40000E94552A111169C281E0909152019111BD
:100E500080E0809352010E94A40C5FC293E0F912DB
:100E6000AFC0103108F054C2A12CB12C89E0829D92
:100E70004001839D900C112490E9E92E0E94E02B03
:100E80002FEF30E040E050E00E94372CF62E0E9419
:100E9000E11D8330D0F5C12CD12C0E94E02B2B0119
:100EA0003C010E94E11D90E00196A9E1A89F9001FC
:100EB000A99F300D1124A901330F660B770B4E87C4
:100EC0005F87688B798BC301B20124E630E040E094
:100ED00050E00E94372C2E853F8548895989261776
:100EE00037074807590754F48F2D90E00C2C02C0A7
:100EF000959587950A94E2F780FD18C23FEFC31AD3
:100F0000D30A48E0C416D10441F68091E006C82E09
:100F1000D12CF401E89EE00DF11D1124E05AFD4FA3
:100F2000DF01AA0DBB1DFC925FEFA51AB50A68E0B0
:100F3000A616B10409F0A2CF2081818190E0820F32
:100F4000911D892B09F0E4C10E94E02B2B013C018B
:100F50000E94E02B4B015C01C301B20124E130E0AF
:100F600040E050E00E94372C21E030E06B3071050A
:100F70008105910514F020E030E089E0829D700148
:100F8000839DF00C112440E94C9DC0014D9D900DB6
:100F900011248E0D9F1D805A9D4F7C01E20EF31E81
:100FA000C501B40127E030E040E050E00E94372C5A
:100FB00081E001C0880F6A95EAF7D7018C93A8C138
:100FC000BDE0FB120EC0103118F4412F60E005C0E7
:100FD000083008F0A2C1402F61E08DE00E94830F2D
:100FE0009CC1E7E0FE1253C00E94F11DF82E1430A0
:100FF000A0F4880F880F810F25E0829FF001112453
:10100000E851F94F408143FF03C00E94412A05C0C7
:101010004095417061E00E94D4218CEF810F8430B3
:10102000B0F44F2D440F440F840F35E0839FF0013F
:101030001124E851F94F908193FF06C0482F60E0DA
:1010400087E00E94830F03C061E00E94C7134F81B5
:10105000443098F48F2D880F880F840F55E0859FBA
:10106000F0011124E851F94F408143FB442740F936
:1010700091E0492768E00E94D4216985643008F036
:101080004CC1862F0E94F71D0E94D70B46C174E108
:101090008FE0F71609F451CBF81267C0111108C0A0
:1010A00081E090915701911180E08093570135C103
:1010B000113041F481E090914701911180E08093DB
:1010C00047012BC1123039F49091010181E0892749
:1010D0008093010122C1133041F481E0909100011D
:1010E000911180E08093000118C1143069F50E94CD
:1010F0007F10F12CCC24C39461E08F2D0E94920FBD
:1011000080E1E82E8F2D8170D82EDC246D2D8E2D60
:101110000E94920FE39498E1E912F8CF0E94E62131
:10112000F3942F2D40E06E2D80E890E00E949D1FEB
:1011300083E290E00197F1F7E394A8E4EA12F1CF9B
:10114000B0E1FB12D9CFE9C0193131F4109250014E
:101150001092480184E1F1CA1C3009F0DEC088E039
:101160000E94CB210E947F10D8C0E4E6FE12D5C0B9
:10117000103108F0CDC00E94E11DD0904C018111CA
:101180000CC0F5E0DF9EC00111249C012851394FAD
:101190007901212F47E064E00DC0813099F4F5E03A
:1011A000DF9EC00111249C012851394F7901212F64
:1011B00043E060E0D70111968C910E94AE0BF701DD
:1011C00081831CC08230D1F4E090E006F0E9EF9E0C
:1011D00070011124C70129E0D29E800D911D1124B8
:1011E000AC01405A5D4F7A01212F43E060E0D70106
:1011F00018968C910E94AE0BF70180876D2D80911F
:10120000E0060E940A0CE090E006AD2CB12CF0E95B
:10121000EF9E70011124C70129E0D29E800D911D1F
:101220001124AC01405A5D4F7A01DA0118968C9175
:101230000E942A0B77247394780EC12CD12C912C08
:1012400025E02A9DC0012B9D900D1124FC01E75142
:10125000F94F2F01A72CB12CC71408F059C0D201A7
:101260008C9047E064E0882D0E94F60A890D99244D
:101270009394980E43E060E0882D0E94F60AF601F0
:10128000E80FF11DCF010196B5010E94EE2D282F28
:101290009714D0F19718E1E0F0E0883010F4E0E026
:1012A000F0E08770992741E050E002C0440F551FDD
:1012B0008A95E2F7CA01EE0DFF1D3081340F3083AD
:1012C000283018F4E2E0F0E002C0E3E0F0E0EE0DD8
:1012D000FF1D3081380F3083283018F0E5E0F0E052
:1012E00002C0E4E0F0E0EE0DFF1D3081380F3083E6
:1012F000283018F0E7E0F0E002C0E6E0F0E0EE0DA4
:10130000FF1D9081890F80835FEFC51AD50AA4CF96
:10131000043018F4802F0E94E71D0E9403228823C6
:1013200009F4D7C8812F0E94920DD3C881E090E0C4
:101330000C2C01C0880F0A94EAF7F81ADFCD81E07F
:101340000E94BB1AFEC8103140F710934C018AE589
:10135000A9C9103108F0E8C910934C011F3009F4F5
:10136000A3C98CE89FC9103108F0DEC910934C0165
:1013700086E498C9802F0E94E71D4CCA229A80916A
:10138000B0008F778093B0008FB7F89423982B9894
:101390008FBF80E027E030E061E070E09091800056
:1013A0009F7D909380002A989091B0009F779093B2
:1013B000B0001B990AC0909180009F7D909380009F
:1013C0002A9A2150310950F70895AB01022E01C02D
:1013D000440F0A94EAF7842BEECF81E080934A0110
:1013E000109262011092490180914B018230D8F431
:1013F00080915201811117C010924B01109260012F
:1014000010925F0110925D0110925C0110925B01DD
:1014100010925A010E94F6138091520181110CC062
:1014200080E00C94311AE8EEF6E01282359687E0FF
:10143000E833F807D1F7E0CF08958091E70683FD00
:1014400035C080915101882389F19091620181E03A
:1014500089278093620190915201911104C089B152
:1014600082FB882780F980934901882309F46DC0A5
:10147000992309F447C080914B0190E03091E00638
:1014800020916601321336C060E470E00E94EE2DB8
:10149000982F9F7091F180934B0180914B018F7336
:1014A0000E94311A0E94F61310924A018091530152
:1014B00090915401A0915501B091560180933E0145
:1014C00090933F01A0934001B09341012FB7F8944E
:1014D0008091EC019091ED01A091EE01B091EF01AE
:1014E0002FBF8093530190935401A0935501B09363
:1014F0005601089560E170E0C9CF321761F2109291
:101500004B01CBCF0E94F61380914B0190E03091BC
:10151000E00620916601321303C060E470E002C06F
:1015200060E170E00E94EE2D982F9F7019F080937B
:101530004B0104C03217D9F310924B0180914B013B
:101540008F5F8F730E94BE1EAFCF80914A018111C1
:10155000ADCF992341F080914B018F730E94BE1E45
:101560000E94F61308C00E94F61380914B018F5F12
:101570008F730E94311A80914B018F5F80934B01D2
:1015800095CFCF93C82F0E94AB1E85E0C89FF00176
:101590001124E851F94F89E08483CF3029F08C2F52
:1015A0006CE00E94CE2D01C09BE0692F8C2F0E9421
:1015B0008F14CF3029F08C2F6CE00E94CE2D01C00B
:1015C00083E0682F8C2F0E94D71360E48C2F0E9439
:1015D000B82160E88C2F0E94B82160E28C2F0E9415
:1015E000B82160E18C2FCF910C94B821CF93DF9379
:1015F000E0E090E070E050E0461B570BA82FB0E011
:1016000081E02E2F30E042175307B4F0260F371F2A
:10161000ED01022E02C0D595C7950A94E2F7C0FFEE
:1016200007C0F82F01C0FF0F2A95EAF72F2F01C03E
:1016300020E0920FEF5FE5CF892F90E002C09595F3
:1016400087956A95E2F7DF91CF91089545E064E0D0
:101650000C94F60A43E060E00C94F60A1F93CF93D3
:10166000DF9395E0899FF0011124E851F94FC28181
:10167000D0E0E091E00690E9E99FF001112499E0C3
:10168000899FE00DF11D1124E05AFD4F1085812F37
:101690000E942A0B682F70E06F5F7F4FCE010E947F
:1016A000EE2D660F771F21E030E0089714F420E05C
:1016B00030E0EB01C20FD31F812F0E94260B682F51
:1016C00070E06F5F7F4F660F771FCE010E94EE2D97
:1016D000DF91CF911F910895EF92FF920F931F9387
:1016E000CF93DF93E82EC091E006082F10E080E949
:1016F000C89FE001112489E0E89EC00DD11D11248E
:10170000C05ADD4F88850E942A0BF82E8E2D0E942C
:101710002E0BC80FD11D85E0809FF001819FF00D39
:101720001124E851F94F828190E06F2D70E06F5FD6
:101730007F4F0E94EE2D9C012770332781E090E0BF
:1017400001C0880F2A95EAF79881890F8883DF9175
:10175000CF911F910F91FF90EF900895CF9330E0BC
:1017600070E050E0461B570BC1E0E32FF0E04E174E
:101770005F07B4F0E60FF71FA82FB0E00E2E02C0EF
:10178000B595A7950A94E2F7A0FF06C09C2F01C06B
:10179000990FEA95EAF701C090E0891B3F5FE5CF1A
:1017A00001C0220F6A95EAF7820FCF9108950F9337
:1017B0001F93CF9308EE16E0C0E060E08C2F0E94EC
:1017C000C713F801808182FF02C084508083CF5FFD
:1017D0000B5F1F4FC03189F7CF911F910F91089573
:1017E000909103019817A9F010924D018093030185
:1017F0000E94D70B80E00E94E71DE8EEF6E08081B2
:1018000083FF02C088508083359687E0E833F8076D
:10181000B1F7089520E9829FC0011124FC0129E05D
:10182000629FE00DF11D1124E05AFD4F17821682D0
:10183000158214821382128211821082089595E01B
:10184000899FF0011124E851F94F908190FF02C067
:1018500091509083682F8091E0060C940A0CDF92DF
:10186000EF92FF920F931F93CF93DF93E090E006E8
:10187000F12C082F10E00E942E0BD82E89E0809FBB
:10188000E001819FD00D112420E92E9DC0012F9DE4
:10189000900D1124C80FD91FC05ADD4F88850E94B2
:1018A0002A0B682FCD0DD11D288130E085E0809F67
:1018B000F001819FF00D1124E851F94F828190E0F1
:1018C00070E06F5F7F4F0E94EE2D87709927A9010E
:1018D00002C0559547958A95E2F7CA018170DF915C
:1018E000CF911F910F91FF90EF90DF9008950F938C
:1018F0001F93CF93DF93D82F062F0E942910C82F54
:101900008D2F0E940210EC2FF0E0E15AFE4F9081E3
:101910008923A9F410915F01C091600110926001C8
:1019200010925F0161E0011101C060E08D2F0E9403
:101930003E100E94F61310935F01C0936001DF9187
:10194000CF911F910F91089580915201882309F43E
:1019500072C0E89886E896E190930E0180930D019D
:10196000E9989093100180930F01109251012091FA
:101970000401822F90E0A0E0B0E09C01AD0128526C
:1019800031094109510960E57FEC8EEF9FEF0E941C
:10199000BE2D28EC30E040E050E00E94372CBA0128
:1019A000A901485B54496E4F7F4F80E180938100CD
:1019B00010928000E3E0440F551F661F771FEA95E1
:1019C000D1F74115510588E06807710568F482E098
:1019D00080936501DB01CA0133E0B695A795979521
:1019E00087953A95D1F70CC083E080936501DB01C0
:1019F000CA0126E0B695A795979587952A95D1F7C0
:101A000090936401809363018091630190916401DC
:101A10009093870080938600809165018061809318
:101A200081008DE19AE0909368018093670181E0E5
:101A300080936F001FC010926F0081E0809351016E
:101A40008DE19AE090930E0180930D0180916900E1
:101A50008C7F816080936900E89A8DEE99E0909385
:101A6000100180930F0180916900837F84608093CF
:101A70006900E99A0C94ED090F931F93CF93C82F37
:101A800080915E010C2F10E0882399F085E0809F03
:101A9000F001819FF00D1124E851F94F808181FF01
:101AA00008C08C2F0E942F0C811103C08C2F0E9424
:101AB0006C0B8C2F0E942F0C382F95E0909FF0011B
:101AC000919FF00D1124E851F94F908196FF02C0CB
:101AD000811113C095E0909FF001919FF00D1124AA
:101AE000E851F94F908192FF02C021E0322790FD2A
:101AF00030E091FF12C031E010C00E94E02B22E0E4
:101B000030E040E050E00E94372C31E01616170616
:101B100018061906FCF230E0DDCF832FCF911F911C
:101B20000F9108951F93CF93DF93C82F893119F434
:101B300081E00E94CB218091E70620EF2C0F80FFEF
:101B400032C02830E8F56091E00620E9629FB001DC
:101B5000112420E9C29FC001112420E030E0EB01F4
:101B6000C20FD31FD901A80FB91F40E050E0FE01FA
:101B7000E40FF51FE05AFD4F1081FA01EA0FFB1F39
:101B8000E05AF6401083475F5F4F4039510579F7BF
:101B90002F5F3F4F2930310511F781E0DF91CF9161
:101BA0001F910C94BB1A283058F44091E00650E085
:101BB0008C2F90E040974817590711F02093660149
:101BC000DF91CF911F9108950F931F93CF93DF93D0
:101BD00090910101992309F440C0D82F0E94EA1383
:101BE000C82F8D2F0E94CB1395E0D99F800111241F
:101BF0000851194FF80124812F5F6C2F70E0685E47
:101C00007F4FFCE08F9F600D711D112444E680E939
:101C100090E00E949D1F6AE070E080E090E00E94EA
:101C20000C218D2F0E94EA13C82F8D2F0E94CB13F9
:101C3000F80124812F5F6C2F70E0685E7F4FFCE01D
:101C40008F9F600D711D112440E080E890E0DF91CE
:101C5000CF911F910F910C949D1FDF91CF911F91F8
:101C60000F910895AF92BF92CF92DF92EF92FF92C1
:101C70000F931F93CF93DF938091480181110EC082
:101C800080916101DF91CF911F910F91FF90EF90B3
:101C9000DF90CF90BF90AF900C941F0C8130D9F49F
:101CA000D091610180E9D89F7001112400E010E01B
:101CB000C0E06FE0D62E6C2F8D2F0E940A0CF7012A
:101CC000E00FF11FE05AFD4FD086CF5F075F1F4F37
:101CD000C03189F70DC1823009F0F1C0D0916101A6
:101CE0000E947F10C0E06C2F8DE00E94C41A61E05A
:101CF0000E94920FCF5FCA30B1F7D830B8F480910C
:101D00000201282F30E00D2E02C0359527950A9448
:101D1000E2F720FF22C021E030E00D2E01C0220FAB
:101D20000A94EAF7821B8093020117C080914F0149
:101D30009D2F9770282F30E0092E02C035952795EA
:101D40000A94E2F720FF09C021E030E001C0220F31
:101D50009A95EAF7821B80934F016091020183E01C
:101D600090E00E94462160914F0184E090E00E9443
:101D7000462161E085E090E00E9446210E94E62134
:101D800084EC94E0D89F8001D99F100D112468E75E
:101D9000C8010A960E94462161E0C8010B960E9484
:101DA000462161E0C8010C960E94462161E0C8010D
:101DB0000D960E9446217801EEE0EE0EF11C48EEF1
:101DC000C42E46E0D42EC0E05CE0B52E60E0C70132
:101DD0000E94462160E0C70140960E944621CF3014
:101DE00011F06C2F01C06BE08C2F0E948F14CF304C
:101DF00029F08C2F6B2D0E94CE2D01C083E0682F1F
:101E00008C2F0E94D7138C2F0E94AB1EF60163818A
:101E1000C70180960E944621F6016481C701C096E1
:101E20000E944621CF5FFFEFEF1AFF0A85E0C80E40
:101E3000D11CC03159F6E12CF12C39E0C32ED12C44
:101E40005801EEE4AE0EB11C00E910E0C701409667
:101E500024E0969587952A95E1F7B6010E94DA2D40
:101E6000892B11F060E001C06FE0C5018E0D9F1D50
:101E70000E944621C701B8010E94DA2D862F61E039
:101E8000805F0E94920F0E94E621FFEFEF1AFF0A87
:101E900080E8E81684E0F806C9F60E945E11809199
:101EA0004E01D81325C0DF91CF911F910F91FF9064
:101EB000EF90DF90CF90BF90AF900C94851183305E
:101EC00071F480916101DF91CF911F910F91FF908B
:101ED000EF90DF90CF90BF90AF900C94C10A843008
:101EE00039F4C0E08C2F0E94C10ACF5FC031D1F716
:101EF000DF91CF911F910F91FF90EF90DF90CF90E6
:101F0000BF90AF900895809359016093480140932A
:101F1000610180910001811102C00C94320E88E7AA
:101F20000C94F00B853009F449C098EF980F953068
:101F300008F463C08F3009F462C093EF980F9230B9
:101F400070F090EF980F953050F09BEE980F97300F
:101F500010F0E0E001C0E3E0882389F101C0E2E095
:101F60008E3069F1873159F1833059F1883049F168
:101F70008D3039F1863129F1823029F18B3019F118
:101F8000803109F18531F9F08130F9F08A30E9F0DA
:101F90008331D9F08831C9F08430C9F08930B9F083
:101FA0008231A9F08B3199F0873099F08C3089F02B
:101FB000813179F08A3169F082E00CC0E1E080E89B
:101FC00009C080E407C080E205C080E103C088E06A
:101FD00001C084E0F0E0ED5BFE4F9081282F2923C3
:101FE000662329F021110DC0890F808308952223D3
:101FF00019F0981B908308950895E1E0B1CFE1E0D6
:10200000DBCF08958230B8F0982F977F9230A9F0F7
:102010009330A9F09CEF980F923098F0863099F0A9
:102020008C3089F0873089F08E3079F08D7F8D305B
:1020300071F482E0089580E8089580E4089580E2D4
:10204000089580E1089588E0089584E0089581E08E
:1020500008959FEF980F923078F0853069F08930BD
:1020600059F095EF980F923038F092EF980F81E089
:10207000923018F080E0089581E008951F93CF9387
:10208000DF93182FD62F81E090E09C01012E02C033
:10209000220F331F0A94E2F780915C0190915D0159
:1020A000A90148235923452B29F061110BC0821B3C
:1020B000930B04C0662331F0820F931F90935D0150
:1020C00080935C01812F0E942910C82F812F0E94CC
:1020D0000210EC2FF0E0E15AFE4F9081282F2923C7
:1020E000DD2329F0211107C0890F808304C022233A
:1020F00011F0981B9083DF91CF911F910895E3E435
:10210000F1E013821282118210820895E82FF0E02C
:10211000F595E795F595E795EB5FFE4F208130E06B
:10212000837090E0880F991FAC014F5F5F4F61E0B3
:1021300070E0FB0102C0EE0FFF1F4A95E2F7AF010E
:102140004223532302C0660F771F8A95E2F72623A6
:102150003723232B21F4452B31F08EE10895452BB5
:1021600021F088E208958AE0089584E10895CF93EC
:10217000DF93C82FD62F0E9486108D1709F452C006
:10218000EC2FF0E0F595E795F595E795EB5FFE4FC1
:102190002081C3708C2F90E0880F991F422F50E050
:1021A000082E02C0559547950A94E2F740FF07C0F4
:1021B00031E0082E01C0330F0A94EAF701C030E085
:1021C000422F431BDA3019F031E0DE3109F430E000
:1021D000232F082E01C0220F0A94EAF7240FAC0126
:1021E0004F5F5F4F822F90E0042E02C09595879538
:1021F0000A94E2F780FF07C081E0042E01C0880F37
:102200000A94EAF701C080E0281BDA3019F091E067
:10221000D43109F490E0892F01C0880F4A95EAF77C
:10222000280F2083DF91CF910895CF93C0E161E023
:102230008C2F0E94920FCF5FC831C9F78091500157
:10224000877090E061E004970CF060E08091660197
:10225000805F0E94920F809150018F7090E061E04A
:1022600008970CF060E08091E006805F0E94920F7A
:102270008091E70680FF20C0C0E060E08C2F0E94C4
:10228000920FCF5FC031C9F7C0E06C2F8EE60E947D
:10229000C41A209150012F7130E061E020313105E6
:1022A0000CF060E00E94920FCF5FCA3071F761E0DE
:1022B00089E1CF910C94920FCF9108951F93CF9302
:1022C000DF93D0E011E0CD2FC170C1276C2F88E1E2
:1022D0000E94920F6C2F89E10E94920F6C2F8AE16D
:1022E0000E94920F6C2F8BE10E94920F0E94E621B8
:1022F00064E670E080E090E00E940C21DF5FD53062
:1023000011F7DF91CF911F9108956F927F928F9275
:102310009F92AF92BF92CF92DF92EF92FF920F9374
:102320001F93CF93DF93109251010E947F10C0E062
:102330006C2F88E00E94C41A61E00E94920FCF5F68
:10234000CA30B1F70E94E62183E090E00E9410209D
:102350008093020184E090E00E94102080934F015E
:1023600085E090E00E94102091E0811101C090E092
:102370009093010187E090E00E941020809300017B
:1023800020914E01C4ECD4E02C9FC0012D9F900DF4
:1023900011240A960E9410208093040120914E017E
:1023A0002C9FC0012D9F900D11240B960E94102090
:1023B0008093520120914E012C9FC0012D9F900DC2
:1023C00011240C960E9410208093570120914E01F9
:1023D0002C9FC0012D9F900D11240D960E9410205E
:1023E0008093470108EE16E0C0E0D0E074ECE72EE1
:1023F00074E0F72E20914E012E9DC0012F9D900D6F
:1024000011240E968C0F9D1F0E941020F8018083CE
:1024100020914E012E9DC0012F9D900D11244E96AE
:102420008C0F9D1F0E941020F801818320914E0186
:102430002E9DC0012F9D900D11248E968C0F9D1FF7
:102440000E941020F801838320914E012E9DC0012F
:102450002F9D900D1124CE968C0F9D1F0E94102051
:10246000F801848321960B5F1F4FC031D10511F60F
:10247000812C912C00E910E034ECE32E34E0F32EB3
:1024800049E0C42ED12C59E0752E60E9662EC401B6
:10249000B8010E94DA2DEB015C0120914E012E9DC6
:1024A000C0012F9D900D1124825B9F4F880D991DB7
:1024B0000E941020482FF401EF70FF27C40124E090
:1024C000969587952A95E1F7B6010E94DA2D7E9EB2
:1024D00090017F9E300D11246C9EB0016D9E700D99
:1024E0001124260F371F205A3D4FF901E80FF91F1D
:1024F0004083AB2839F461E08C2F805F0E94920FFB
:102500000E94E621FFEF8F1A9F0A80E8881684E078
:10251000980609F0BCCF0E945E11109266011092DD
:10252000E00610924C0184E00E94BB1A80E00E94F9
:10253000F71D84E00E94F00B0E94ED0910924B0100
:10254000DF91CF911F910F91FF90EF90DF90CF908F
:10255000BF90AF909F908F907F906F900C94A40C41
:102560008F929F92AF92BF92CF92DF92EF92FF92A3
:102570000F931F93CF93DF93182F0E947F10C0E01B
:102580006C2F8EE00E94C41A61E00E94920FCF5F10
:10259000CA30B1F71830B8F440910201242F30E06E
:1025A000012E02C0359527950A94E2F720FD22C03E
:1025B00081E090E0012E01C0880F0A94EAF7840FB1
:1025C0008093020117C040914F01512F5770242F63
:1025D00030E0052E02C0359527950A94E2F720FDDC
:1025E00009C081E090E001C0880F5A95EAF7840F96
:1025F00080934F0160914E0182E090E00E9446215D
:102600006091020183E090E00E94462160914F01B9
:1026100084E090E00E9446216091010185E090E015
:102620000E9446216091000187E090E00E944621CF
:102630000E94E62184EC94E0189FE001199FD00DE0
:10264000112460910401CE010A960E9446216091F6
:102650005201CE010B960E94462160915701CE0196
:102660000C960E94462160914701CE010D960E9472
:10267000462108EE16E07E018EE0E80EF11C78E3BC
:10268000C72E77E0D72EF8018081682F6E7F81FDFD
:1026900002C090E001C092E0691B82FD02C090E0A0
:1026A00001C094E0691B83FD02C080E001C088E0A6
:1026B000681BC7010E944621F8016181C70140964D
:1026C0000E944621F8016381C70180960E9446213D
:1026D000F8016481C701C0960E9446210B5F1F4F1D
:1026E000FFEFEF1AFF0AC016D10669F600E010E00E
:1026F00030E9C32ED12C49E0E42EF12C59E0852E8F
:1027000060E9962EC25BDF4FC801B6010E94DA2D48
:102710005B01F801EF70FF27C80124E096958795CB
:102720002A95E1F7B7010E94DA2D8E9E90018F9EC7
:10273000300D11249A9CA0019B9C500D1124240F54
:10274000351F205A3D4FF901E80FF91F6081CE0176
:10275000800F911F0E94462161E080E18A0D0E9456
:10276000920F0E94E6210F5F1F4F003884E0180788
:1027700059F6DF91CF911F910F91FF90EF90DF906D
:10278000CF90BF90AF909F908F900C945E11462F8A
:1027900062E00C94D42125E0829FC0011124FC0149
:1027A000E851F94F45E064E083810C94F60ACF9339
:1027B000DF93262F35E0839FC0011124EC01C8511F
:1027C000D94F45E064E08B810E94AE0B8B83DF9193
:1027D000CF91089525E0829FC0011124FC01E851AA
:1027E000F94F43E060E083810C94F60A8F929F9248
:1027F000AF92BF92CF92DF92EF92FF920F931F930F
:10280000CF93DF938FE00E94EA13880F880FC7E30E
:10281000C80F80915C0190915D0197FF08C08FE027
:102820000E94CB1329E0829FC001112402C080E0E6
:1028300090E08C0F98EEC92E96E0D92E00E010E0C3
:10284000AA24A394B12CC82FD0E0802E9501002E8D
:1028500002C0220F331F0A94E2F740915C015091AD
:102860005D014223532380915A0190915B018223A1
:102870009323452B19F4892B29F425C0892B11F4B6
:102880007E0102C0E12CF12C882D0E94EA13982EC3
:10289000882D0E94CB13692D70E0685E7F4F9CE00D
:1028A000899F600D711D1124F60124812F5FE114B1
:1028B000F10421F440E080E890E003C04E2D80E96F
:1028C00090E00E949D1F0F5F1F4FF5E0CF0ED11CBF
:1028D0000F30110509F0B9CF80915C0190915D0135
:1028E00090935B0180935A01439840915F0160E1AE
:1028F0008FE00E948D004091600160E18FE00E94B6
:102900008D00439ADF91CF911F910F91FF90EF902F
:10291000DF90CF90BF90AF909F908F900895CF930E
:10292000DF93262F35E0839FC0011124EC01C851AD
:10293000D94F43E060E08B810E94AE0B8B83DF9127
:10294000CF9108958F929F92AF92BF92CF92DF92D4
:10295000EF92FF920F931F93CF93DF931092510149
:102960000E947F10C0E161E08C2F0E94920FCF5F28
:10297000CC31C9F70E94E62165E480E090E00E9436
:10298000462164E081E090E00E94462160E082E020
:1029900090E00E94462161E083E090E00E944621A1
:1029A00060E084E090E00E94462161E085E090E0F4
:1029B0000E94462161E086E090E00E94462161E0AD
:1029C00087E090E00E94462160E088E090E00E946D
:1029D000462100E010E0D12C4CE0C42E59E0A52E99
:1029E000B12C68E7C8010A960E94462161E0C8013F
:1029F0000B960E94462161E0C8010C960E94462178
:102A000061E0C8010D960E94462178018EE0E80E33
:102A1000F11C38EE832E36E0932EC0E060E0C70153
:102A20000E94462160E0C70140960E944621CF30B7
:102A300029F08C2F6C2D0E94CE2D01C09BE0692FB8
:102A40008C2F0E948F14CF3029F08C2F6C2D0E9478
:102A5000CE2D01C083E0682F8C2F0E94D7138C2FBE
:102A60000E94AB1EF4016381C70180960E9446213B
:102A700069E0C701C0960E944621CF5FFFEFEF1AC1
:102A8000FF0A85E0880E911CC03141F6C0E1D0E01C
:102A90007801EEE3EE0EF11CCE0124E096958795C9
:102AA0002A95E1F7B5010E94DA2D892B11F060E03B
:102AB00001C06FE0C7018C0F9D1F0E944621219627
:102AC000C039F4E0DF0741F761E08D2D0E94920FDD
:102AD0000E94E621D3940C531B4F80E1D81281CF82
:102AE00061E88EE490E00E94462161E08EE590E08E
:102AF0000E94462160E18FE490E00E94462160E15F
:102B00008FE590E00E94462165E580E590E00E9417
:102B1000462165E580E690E00E94462160E081E57F
:102B200090E00E94462160E881E690E00E94462104
:102B300061E18EED90E00E94462161E18EEE90E031
:102B40000E94462160E18FED90E00E94462160E105
:102B50008FEE90E00E94462161E180EE90E00E94BD
:102B6000462161E180EF90E00E94462164E481EE1D
:102B700090E00E94462164E481EF90E00E944621AB
:102B800061E48EE691E00E94462160E08EE791E0EC
:102B90000E94462160E18FE691E00E94462160E1BB
:102BA0008FE791E00E9446216DED80E791E00E9461
:102BB00046216DEF80E891E00E94462165ED81E7B6
:102BC00091E00E9446216AE581E891E00E94462159
:102BD00069E98EEF91E00E94462169E98EE092E07A
:102BE0000E94462169E48FEF91E00E94462164E251
:102BF0008FE092E00E9446216FEF80E092E00E9419
:102C000046216FEF80E192E00E94462161E481E07D
:102C100092E00E94462160E281E192E00E9446211A
:102C20006FE48EE792E00E9446216FE48FE792E026
:102C30000E9446216FE480E892E00E9446216FE402
:102C400081E892E00E94462165E88EE892E00E94C9
:102C5000462162E18EE992E00E94462160E98FE818
:102C600092E00E9446216AE98FE992E00E944621A3
:102C70006FE780E992E00E9446216FED80EA92E0E2
:102C80000E94462160E881E992E00E94462160E2CC
:102C900081EA92E00E94462161E48EE193E00E9485
:102CA000462161E48EE293E00E94462161E18FE1DA
:102CB00093E00E94462161E18FE293E00E94462169
:102CC0006DED80E293E00E9446216DED80E393E09C
:102CD0000E94462161EA81E293E00E94462163E47A
:102CE00081E393E00E94462110924C0110924E0124
:102CF000DF91CF911F910F91FF90EF90DF90CF90D8
:102D0000BF90AF909F908F900C9485110895CF92B3
:102D1000DF92EF92FF920F931F93CF93DF936C019B
:102D20007A018B01C0E0D0E0CE15DF0581F0D8013B
:102D30006D918D01D601ED91FC910190F081E02D16
:102D4000C6010995892B11F02196EECF7E01C701AE
:102D5000DF91CF911F910F91FF90EF90DF90CF9077
:102D6000089585ED8093BC008091BC0084FDFCCF6C
:102D70001092380208954091C901262F30E0240FA7
:102D8000311D21323105DCF4209138022430C9F4A0
:102D9000FC0180E090E0861758F43091C901219140
:102DA000DC01A755BE4FA30FB11D2C930196F3CFA5
:102DB0008091C901680F6093C90180E0089581E0A6
:102DC000089582E00895089508950895E091F1012D
:102DD0008091F001E81730F4F0E0EE50FE4F808172
:102DE00090E008958FEF9FEF08959091F101809109
:102DF000F001981750F4E92FF0E0EE50FE4F2081DB
:102E000030E09F5F9093F10102C02FEF3FEFC901C7
:102E100008958091F00190E02091F101821B9109C9
:102E20000895CF92DF92EF92FF920F931F93CF936B
:102E3000DF937C01CB018A0120913902222389F0A2
:102E4000EB016B01C40ED51ECC15DD0569F069914F
:102E5000D701ED91FC910190F081E02DC70109951A
:102E6000F3CF642F0E94BB16C801DF91CF911F9151
:102E70000F91FF90EF90DF90CF900895CF93DF9365
:102E80001F92CDB7DEB76983209139022223D1F09A
:102E900020915B02203240F021E030E0FC013383DE
:102EA000228380E090E015C080913A02E82FF0E0A4
:102EB000E55CFD4F998190838F5F80933A02809308
:102EC0005B0205C061E0CE0101960E94BB1681E065
:102ED00090E00F90DF91CF91089520915E023091A4
:102EE0005F022817390771F490915C0280915D02AE
:102EF000981741F0E0915C02F0E0E759FE4F8081C5
:102F000090E008958FEF9FEF08951F93CF93DF9385
:102F1000DC015C968D919C915D97009739F421E0DE
:102F200030E013963C932E9312973BC05196ED914F
:102F3000FC91529750962C915097322F30951FB795
:102F40005E964C915E97742F727041FD6095F89477
:102F50004081772311F0422B01C043234083EC01D1
:102F60002197F1F748E0508160FF02C0522B01C069
:102F700053235083EC012197F1F76695415099F75F
:102F80008081772319F08323808302C0282B20833C
:102F90001FBF5C968D919C915D970197F1F781E041
:102FA00090E0DF91CF911F91089520915E023091C2
:102FB0005F022817390771F480915D0220915C024D
:102FC00090E0805C9F4F821B910960E470E00E945A
:102FD000EE2D089580E090E0089520915E023091FA
:102FE0005F0228173907B9F490915C0280915D0265
:102FF000981789F0E0915C02F0E0E759FE4F80817C
:1030000020915C0230E02F5F3F4F2F7333272093D6
:103010005C0290E008958FEF9FEF0895089580E09F
:1030200090E008950E94082E1F920F920FB60F9203
:1030300011242F933F934F935F936F937F938F93BD
:103040009F93AF93BF93EF93FF93E0910F01F091A4
:1030500010010995FF91EF91BF91AF919F918F91D1
:103060007F916F915F914F913F912F910F900FBE84
:103070000F901F9018951F920F920FB60F92112468
:103080002F933F934F935F936F937F938F939F9370
:10309000AF93BF93EF93FF93E0910D01F0910E0179
:1030A0000995FF91EF91BF91AF919F918F917F9182
:1030B0006F915F914F913F912F910F900FBE0F90A5
:1030C0001F9018951F920F920FB60F9211242F93F5
:1030D0003F934F935F936F937F938F939F93AF93A0
:1030E000BF93EF93FF938091B900887F803609F4F6
:1030F0009CC068F5883209F45BC090F4803109F413
:1031000054C038F4882309F4F6C0883009F44DC05F
:10311000F6C0883109F44CC0803209F45DC0EFC0BC
:10312000803409F468C048F4803309F455C088330A
:1031300009F0E5C080933602D8C0803509F44FC04D
:10314000883509F45DC0883409F0D9C0D6C0883903
:1031500009F4C7C0A8F4883709F467C038F4883682
:1031600009F463C0803709F460C0C9C0883809F425
:10317000B8C0803909F45FC0803809F0C0C05BC0B6
:10318000803B09F486C038F4803A09F466C0883A76
:1031900009F47FC0B4C0803C09F4A7C0883C09F49E
:1031A000A4C0883B09F48AC0AAC08091130210C051
:1031B0009091350280913402981770F5E0913502B4
:1031C00081E08E0F80933502F0E0EC5EFD4F808150
:1031D0008093BB0085EC86C0809336028EC0E09160
:1031E000350281E08E0F809335028091BB00F0E0C4
:1031F000EC5EFD4F808390913502809134026EC069
:10320000E091350281E08E0F809335028091BB0002
:10321000F0E0EC5EFD4F80838091370281116DC03C
:1032200081E08093120284EA61C083E080933802D7
:103230001092EB01CFCF8091EB01803208F051C0AA
:10324000E091EB0181E08E0F8093EB018091BB0058
:10325000F0E0E553FE4F8083BDCF85EC8093BC004A
:10326000109238028091EB01803230F4E091EB0152
:10327000F0E0E553FE4F10826091EB0170E0E091C9
:103280003A01F0913B018BEC91E009951092EB0132
:1032900036C084E0809338021092CA011092C901AE
:1032A000E0913C01F0913D0109958091C9018111A6
:1032B00005C081E08093C9011092A901E091CA0183
:1032C00081E08E0F8093CA01F0E0E755FE4F8081C8
:1032D0008093BB009091CA018091C901981708F4AE
:1032E00079CF85E88093BC000AC085EC8093BC0050
:1032F0001092380204C0109236020E94B116FF915B
:10330000EF91BF91AF919F918F917F916F915F915D
:103310004F913F912F910F900FBE0F901F901895D6
:103320001F920F920FB60F9211242F933F934F933A
:103330005F936F937F938F939F93AF93BF93EF931D
:10334000FF93E0916701F09168010995FF91EF917A
:10335000BF91AF919F918F917F916F915F914F91AD
:103360003F912F910F900FBE0F901F9018951F92B5
:103370000F920FB60F9211242F933F934F935F93A9
:103380006F937F938F939F93AF93BF93EF93FF932D
:10339000E0915E02F0915F02309709F451C0968D82
:1033A000A685B785858591FF04C09C91892329F462
:1033B00047C09C91892309F043C0A389B4899C919B
:1033C0008589809589238C93868997890197F1F760
:1033D000608D718DA685B785558538E020E0CB01DD
:1033E0000197F1F7822F90E095958795282F4C91C2
:1033F000452309F02068315091F7868D81FD209595
:1034000080915D0290E001968F73992730915C0264
:10341000381749F0A0915D02B0E0A759BE4F2C9338
:1034200080935D0203C0868D8160868F828D938D2F
:103430000197F1F7A389B4899C918589892B8C9395
:10344000FF91EF91BF91AF919F918F917F916F917C
:103450005F914F913F912F910F900FBE0F901F9052
:1034600018958F929F92AF92BF92CF92DF92EF9278
:10347000FF920F931F93CF93DF93D82E8F7089F411
:10348000809166019091E006981759F08093E006CC
:10349000E8EEF6E01282359687E0E833F807D1F7D8
:1034A000D12CC8EED6E000E010E089E0B82E90E91B
:1034B000A92EED2CF12CC02ED11003C0888185FDE2
:1034C00058C08091E006B09EF001B19EF00D11242D
:1034D000A89EE00DF11D1124E05AFD4F9084892D26
:1034E0000E94260B882E892D0E942A0BEA81F0E08B
:1034F000482D50E04F5F5F4F282F30E02F5F3F4F48
:10350000429FB001439F700D529F700D1124CF0157
:103510000E94EE2D8A8347E066E0892D0E94F60A1C
:10352000682F70E06F5F7F4FC7010E94EE2D892BDF
:1035300039F4888187FD04C08C2D0E943C0D01C0A8
:1035400080E0682F8C2D0E943E100F5F1F4F259644
:103550000031110509F0AFCFDF91CF911F910F918D
:10356000FF90EF90DF90CF90BF90AF909F908F90A3
:1035700008951A82A6CF9091E706292F282319F0E3
:10358000981B9093E70608958035F1F08A3509F489
:1035900038C1843609F46AC18E36A1F4662309F471
:1035A000F0C1613009F4EFC1623009F4EEC163305B
:1035B00009F4EDC1643009F4ECC1653009F4EBC1E4
:1035C00089E0089581111DC0662309F4E6C16130C8
:1035D00009F4E5C1623009F4E4C1633009F4E3C1E0
:1035E000643009F4E2C1653009F4E1C1663009F4E0
:1035F000E0C1673009F4DFC1683009F0DEC18DE059
:1036000008958230E1F4662309F4D9C1613009F4E8
:10361000D8C1623009F4D7C1633009F4D6C164302F
:1036200009F4D5C1653009F4D4C1663009F4D3C1B9
:10363000673009F4D2C1683009F0D1C108958330F0
:10364000E9F4662309F4CDC1613009F4CCC16230DC
:1036500009F4CBC1633009F4CAC1643009F4C9C1AB
:10366000653009F4C8C1663009F4C7C1673009F490
:10367000C6C1683009F0C5C189E008958D30B9F43C
:10368000662309F4C0C1613009F4BFC1623009F496
:10369000BEC1633009F4BDC1643009F4BCC16530FA
:1036A00009F4BBC1663009F0BAC18FE008958930D2
:1036B000B9F4662309F4B5C1613009F4B4C16230CC
:1036C00009F4B3C1633009F4B2C1643009F4B1C183
:1036D000653009F4B0C1663009F4AFC184E00895E3
:1036E0008B30B9F4662309F4AAC1613009F4A9C189
:1036F000623009F4A8C1633009F4A7C1643009F449
:10370000A6C1653009F4A5C1663009F0A4C187E0FF
:1037100008958A30E9F4662309F49FC1613009F401
:103720009EC1623009F49DC1633009F49CC16430CC
:1037300009F49BC1653009F49AC1663009F499C156
:10374000673009F498C1683009F497C18DE0089595
:103750008430E9F4662309F492C1613009F491C11F
:10376000623009F490C1633009F48FC1643009F408
:103770008EC1653009F48DC1663009F48CC16730A3
:1037800009F48BC1683009F08AC18BE00895853057
:10379000D1F4662309F485C1613009F484C1623033
:1037A00009F483C1633009F482C1643009F481C132
:1037B000653009F480C1663009F47FC1673009F0D3
:1037C0007EC182E008958730D1F4662309F479C17F
:1037D000613009F478C1623009F477C1633009F4CB
:1037E00076C1643009F475C1653009F474C166307E
:1037F00009F473C1673009F072C188E00895883018
:10380000A1F4662309F46DC1613009F46CC1623022
:1038100009F46BC1633009F46AC1643009F469C109
:10382000653009F068C18EE008958C30E9F46623B4
:1038300009F463C1613009F462C1623009F461C105
:10384000633009F460C1643009F45FC1653009F484
:103850005EC1663009F45DC1673009F45CC168304F
:1038600009F05BC18BE008958130E9F4662309F427
:1038700056C1613009F455C1623009F454C1633056
:1038800009F453C1643009F452C1653009F451C1DF
:10389000663009F450C1673009F44FC1683009F04F
:1038A0004EC18EE008958E30E9F4662309F449C1D3
:1038B000613009F448C1623009F447C1633009F44A
:1038C00046C1643009F445C1653009F444C166302D
:1038D00009F443C1673009F442C1683009F041C1BD
:1038E00087E008958F30B9F4662309F43CC1613054
:1038F00009F43BC1623009F43AC1633009F439C1BB
:10390000643009F438C1653009F437C1663009F014
:1039100036C187E008958630B9F4662309F431C1D1
:10392000613009F430C1623009F42FC1633009F409
:103930002EC1643009F42DC1653009F42CC1663004
:1039400009F02BC182E00895662309F428C1613093
:1039500009F427C1623009F426C1633009F425C196
:10396000643009F424C1653009F423C1663009F4D8
:1039700022C1673009F421C1683009F420C18EE00A
:10398000089587E0089583E0089582E0089588E02F
:1039900008958CE008958DE0089583E0089582E015
:1039A000089581E0089584E0089585E008958AE00F
:1039B00008958BE008958EE008958CE0089580E0EE
:1039C000089581E0089585E0089589E008958DE0E7
:1039D00008958EE008958AE0089586E0089583E0D2
:1039E00008958FE008958AE0089587E0089582E0C1
:1039F000089581E0089580E0089584E0089588E0C6
:103A000008958CE0089585E0089586E008958AE0A1
:103A1000089589E0089580E0089583E008958CE09A
:103A2000089581E0089582E0089587E008958BE08D
:103A300008958EE008958DE0089588E0089580E06F
:103A4000089584E0089589E008958DE008958EE05A
:103A500008958AE0089583E008958CE0089588E051
:103A6000089584E0089580E0089581E0089582E05B
:103A7000089587E008958BE008958EE008958CE026
:103A8000089588E0089584E0089580E0089585E031
:103A9000089586E0089583E0089587E008958FE013
:103AA00008958AE0089589E008958CE0089588E0FB
:103AB000089584E0089580E0089581E0089583E00A
:103AC000089589E008958AE0089587E0089582E0E6
:103AD000089581E0089580E0089584E008958CE0E1
:103AE000089580E0089584E0089588E008958CE0CA
:103AF00008958DE008958FE008958CE0089588E0A2
:103B0000089589E0089584E0089581E0089582E0B1
:103B1000089587E008958AE008958FE0089583E08E
:103B2000089582E0089581E0089580E0089584E09A
:103B3000089588E008958CE008958DE008958FE061
:103B4000089580E0089584E0089588E008958CE069
:103B5000089589E008958AE008958FE008958BE044
:103B6000089583E0089580E0089584E0089588E052
:103B700008958DE008958EE008958BE0089583E028
:103B800008958FE008958EE008958DE0089588E00F
:103B9000089584E0089581E0089583E008958DE01C
:103BA000089589E0089585E0089584E0089581E00E
:103BB000089582E0089587E0089586E008958AE0F8
:103BC000089547E064E0809142010C94F60A282FA2
:103BD00047E064E0809142010E94AE0B8093420175
:103BE000089543E062E0809142010C94F60A282F88
:103BF00043E062E0809142010E94AE0B809342015B
:103C00000895282F30915B02313208F04AC080912C
:103C100038028111FCCF9091E60642E040933802D1
:103C2000209337022FEF2093360210923502309303
:103C30003402EBE3F2E0A4E1B2E020E0321721F03D
:103C400041914D932F5FFACF1092130220911302EE
:103C5000990F922B9093130290911202913061F47C
:103C600010921202909113029093BB009091BC00AD
:103C700093FDF8CF95EC01C095EE9093BC00909128
:103C800038029230E1F3909136029F3F79F08091B3
:103C90003602803241F080913602803331F084E088
:103CA00005C081E003C082E001C083E010923A02C7
:103CB00010925B02109239020895833081F028F44B
:103CC000813099F08230A1F008958730A9F08830D2
:103CD000B9F08430D1F4809180008F7D03C0809151
:103CE00080008F7780938000089584B58F7702C01D
:103CF00084B58F7D84BD08958091B0008F7703C017
:103D00008091B0008F7D8093B00008953FB7F89404
:103D10008091E2069091E306A091E406B091E50659
:103D200026B5A89B05C02F3F19F00196A11DB11D16
:103D30003FBFBA2FA92F982F8827820F911DA11D51
:103D4000B11DBC01CD0142E0660F771F881F991F8E
:103D50004A95D1F70895CF93DF9325E0829FC00164
:103D60001124EC01C851D94F21E047E066E08B8176
:103D70000E94AE0B8B83DF91CF9108959F92AF92FB
:103D8000BF92CF92DF92EF92FF920F931F93CF9348
:103D9000DF9308EE16E0C0E0D0E099E0D92E20E9EC
:103DA000C22EE82EF12C9C2E8091E006DC9EF001C4
:103DB000DD9EF00D1124C89EE00DF11D1124E05A86
:103DC000FD4F47E066E080850E94F60A682F70E0AC
:103DD0006F5F7F4FC7010E94EE2D5C01F80180816B
:103DE000807921F08C2F0E943C0D01C080E0682F6B
:103DF000892D0E943E10AB2821F4F80182818F5F4B
:103E0000828321960B5F1F4FC031D10561F6DF9190
:103E1000CF911F910F91FF90EF90DF90CF90BF90C7
:103E2000AF909F900895CF93DF93FC01138E128E75
:103E3000118E108E178A168A8DE790E0958F848FE9
:103E40009485963108F04EC02DE230E0378B268BFA
:103E50002BE730E0318F208F24E530E0338F228F45
:103E600030916800983058F021E09E3008F420E04E
:103E700091E0892F01C0880F2A95EAF701C084E0FC
:103E8000832B809368009485983038F09E3040F002
:103E9000963148F020E030E008C02DE630E005C063
:103EA0002BE630E002C02CE630E0348B238B9830D8
:103EB00030F481E001C0880F9A95EAF70EC0292FEF
:103EC00030E09E3018F42850310902C02E503109DC
:103ED00081E001C0880F2A95EAF7858B848D958D46
:103EE0000197F1F7828D938D892B21F1A0915E02CC
:103EF000B0915F02EA17FB07E9F0109751F0539673
:103F0000CD91DC915497988155968C918095892319
:103F10008883868D8E7F868F10925D0210925C0260
:103F2000F0935F02E0935E02A389B4899C91858936
:103F3000892B8C93DF91CF9108950F931F93CF938B
:103F4000DF932150203118F4803891051CF4109231
:103F50006A0761C0142FEC01813E9105B4F5062F6C
:103F60000F77682F622B80916A07681769F060935A
:103F70006A078091F9079091FA07DC01ED91FC91B5
:103F80000190F081E02D09958091F9079091FA0751
:103F9000DC01ED91FC910190F081E02D602F0995FD
:103FA000CF7EC03CD105B9F18091F9079091FA0715
:103FB000612F6F77DC01ED91FC910190F081E02D94
:103FC000DF91CF911F910F910994865F91090A9714
:103FD00010F5CD3FD10550F4CA3FD10560F4C63F7E
:103FE000D10549F0C83FD10591F405C0CE018E5FDF
:103FF0009109029760F48091F9079091FA07DC012A
:10400000ED91FC910190F081E02D6C2F0995C63F58
:10401000D10509F49CCFDF91CF911F910F910895A5
:10402000CF93DF93EC0181E08093390280E58093A8
:10403000E60610923A0210925B028D2F90E00E94E9
:10404000C621CE0199270E94C62181E00E94011E4F
:10405000809138028111FCCF81E0809338028093F7
:1040600037029FEF9093360210923502109234027D
:104070008093130280911302806A809313028091CF
:104080001202813061F41092120280911302809327
:10409000BB008091BC0083FDF8CF85EC01C085EEAC
:1040A0008093BC00809138028130E1F38091350229
:1040B000811103C09091350201C091E0A4E1B2E00A
:1040C000E2EFF1E080E0891721F02D9121938F5FDD
:1040D000FACF1092F1018093F001882329F088E350
:1040E00097E00E94F51601C08FEFDF91CF91089500
:1040F000CF93DF93282F30E0F901EE58FF4F8491E2
:10410000F901E255FF4FD491F901E656FF4FC491F2
:10411000CC2391F081110E945D1EEC2FF0E0EE0F98
:10412000FF1FEA57FF4FA591B491EC91ED2381E079
:1041300090E021F480E002C080E090E0DF91CF9138
:1041400008951F93CF93DF93282F30E0F901EE58A5
:10415000FF4F8491F901E255FF4FD491F901E656E2
:10416000FF4FC491CC23C1F0162F81110E945D1E18
:10417000EC2FF0E0EE0FFF1FE057FF4FA591B49139
:104180009FB7F894111104C08C91D095D82302C028
:10419000EC91DE2BDC939FBFDF91CF911F910895AF
:1041A000CF93DF9390E0FC01E255FF4F2491FC0197
:1041B000E656FF4F8491882361F190E0880F991FA4
:1041C000FC01E859FF4FC591D491FC01E057FF4F26
:1041D000A591B491611109C09FB7F8948881209589
:1041E00082238883EC912E230BC0623061F49FB749
:1041F000F8948881322F309583238883EC912E2B7D
:104200002C939FBF06C08FB7F894E8812E2B28838C
:104210008FBFDF91CF9108958F929F92AF92BF92FF
:10422000CF92DF92EF92FF926B017C010E94861E7B
:104230004B015C01C114D104E104F104F1F00E94CE
:10424000861EDC01CB0188199909AA09BB09883EA1
:104250009340A105B10570F321E0C21AD108E1082D
:10426000F10888EE880E83E0981EA11CB11CC114D1
:10427000D104E104F10419F7DDCFFF90EF90DF9056
:10428000CF90BF90AF909F908F9008951F93CF9342
:10429000DF93EC01162F81E08093390280E5809353
:1042A000E60610923A0210925B028D2F90E00E9477
:1042B000C621CE0199270E94C621612F88E397E08D
:1042C0000E943E1781E00E94011E65E070E080E0E0
:1042D00090E0DF91CF911F910C940C211F920F92CF
:1042E0000FB60F9211242F933F938F939F93AF9309
:1042F000BF938091EC019091ED01A091EE01B091FE
:10430000EF013091E10623E0230F2D3720F40196D1
:10431000A11DB11D05C026E8230F0296A11DB11DE8
:104320002093E1068093EC019093ED01A093EE01C0
:10433000B093EF018091E2069091E306A091E4062C
:10434000B091E5060196A11DB11D8093E206909300
:10435000E306A093E406B093E506BF91AF919F9169
:104360008F913F912F910F900FBE0F901F90189536
:1043700025E0829FC0011124FC01E851F94F8081A2
:10438000982F962311F0861B80830895682F88E369
:1043900097E00C943E179091E706292F282319F4F3
:1043A000890F8093E7060895442369F095E0899F7B
:1043B000F0011124E851F94F8081982F962329F4B8
:1043C000680F608308950C94B8210895CF93DF930C
:1043D0005F98C3E4D1E0488168E086E00E948D00E8
:1043E000498168E086E00E948D004A8168E086E0AD
:1043F0000E948D004B8168E086E00E948D005F9AEC
:10440000DF91CF91089590910301992349F08CEFAA
:10441000890F833028F081E0973019F080E008950B
:1044200081E00895789484B5826084BD84B581600C
:1044300084BD85B5826085BD85B5816085BD80916F
:104440006E00816080936E001092810080918100E7
:1044500082608093810080918100816080938100DF
:10446000809180008160809380008091B1008460A1
:104470008093B1008091B00081608093B000809102
:104480007A00846080937A0080917A0082608093C1
:104490007A0080917A00816080937A0080917A001E
:1044A000806880937A001092C10080E480937C0041
:1044B00080917A00806480937A0080917A0086FDF2
:1044C000FCCF609178008091790070E0782B072E06
:1044D000000C880B990B611571058105910511F090
:1044E0000E942E2C1092F1011092F00110923A02CB
:1044F00010925B0210923802C1E0C0933702109212
:10450000120261E082E10E94A12061E083E10E9449
:10451000A1208091B9008E7F8093B9008091B9006D
:104520008D7F8093B90088E48093B80085E4809300
:10453000BC0083EE96E190933D0180933C0184EEB4
:1045400096E190933B0180933A01579A209A84B563
:104550008F7784BD8FB7F89456985E988FBF219A55
:10456000229A8091B0008F778093B0008FB7F89433
:1045700023982B988FBF3B9A3A9A8FB7F894399823
:1045800041988FBF8FB7F89452985A9A8FBF8091F5
:10459000B0008F7D8093B0008FB7F89453985B9AEA
:1045A0008FBF509A589A84B58F7D84BD8FB7F89489
:1045B00055985D988FBF519A8BEF97E00E94131F1B
:1045C0008091F9079091FA070E94131FC0936B071F
:1045D00010926A0710926907109272071092710781
:1045E0001092700710926F071092F80710927507DB
:1045F0001092740710927307109276071092770743
:1046000080916807817082608160809368070E9452
:10461000E6210E94F6130E94D00080E090E00E9404
:104620001020853411F00E94A21482E090E00E94D4
:10463000102080934E010E948511C0E061E08C2F14
:104640000E94920F0E94E6216FE070E080E090E00F
:104650000E940C21CF5FC83189F701E07724739461
:1046600015E0F0E0AF2EF0E0BF2E8091E70683FD6D
:10467000A1C6809150018F738093500180915101A8
:10468000882309F440C02FB7F8948091EC019091F1
:10469000ED01A091EE01B091EF012FBFC090530149
:1046A000D0905401E0905501F0905601BC01CD012D
:1046B0006C197D098E099F090E949F2C1B012C01FA
:1046C00080913E0190913F01A0914001B091410144
:1046D000A7019601281B390B4A0B5B0BCA01B901D4
:1046E0000E949F2C26E636E646E65FE30E94002DF8
:1046F0009B01AC01C201B1010E949A2CD82EDD1C95
:10470000DD24DD1C01C0D12CD09258010E947F1005
:10471000C0910301C83711F5C0E06C2F8DE00E94F5
:10472000C41A61E00E94920FCF5FCA30B1F7809146
:1047300050018F7190E0C1E040970CF0C0E06C2F09
:1047400084E10E94920F6C2F85E10E94920F6C2FE2
:1047500086E10E94920F6C2F87E11DC68091E706CB
:1047600081FF6FC0CF3009F44AC0C0E0D0E0609153
:10477000020170E00C2E02C0759567950A94E2F76D
:1047800061708C2F0E94920F60914F0170E00C2E8F
:1047900002C0759567950A94E2F761708C2F885F67
:1047A0000E94920F2196C830D10509F7C09150019F
:1047B0008C2F8F7190E061E040970CF060E0809169
:1047C0004E010E94920F61E080E10E94920F61E031
:1047D00081E10E94920F61E082E10E94920F41E02C
:1047E00060E0809142010E94F60ACF702C2F30E0E9
:1047F00061E0283031050CF060E0805F1DC0C0E052
:104800006C2F85E00E94C41A209150012F7130E076
:1048100061E0203131050CF060E00E94920FCF5F23
:10482000CA3071F761E088E10E94920F61E089E18E
:104830000E94920F61E08BE10E94920F61E08AE199
:10484000AAC582FF2FC0C03521F0CA3511F0C43689
:1048500069F480915001803248F484E180934D01E5
:1048600061E080914C010E94920F17C0D0914D01E0
:10487000D53108F0D4E1D0934D01F12CDF1551F082
:104880006F2D66958C2F0E94C41A61E00E94920FD2
:10489000F394F4CFDF5FD0934D010E94151161E0D6
:1048A0008BE179C5E0904B018E2D8370823020F42E
:1048B000D0914A01D02701C0D0E0C23038F0C830D2
:1048C00029F0CC3319F0C23809F050C0F12CC238AD
:1048D00029F461E05FE0F51210C00CC0CC3361F444
:1048E0008FE0F81209C0809150018F7090E061E074
:1048F00008971CF060E001C061E08F2D0E94920FCC
:10490000F39490E1F912E3CF80914A01811106C03E
:10491000609149018E2D8F700E94920FCC3319F057
:10492000C23809F027C561E080E10E94920F61E082
:1049300081E10E94920F61E082E10E94920F61E0AA
:1049400083E10E94920FC23849F4809150018F7028
:1049500090E061E008971CF060E001C061E084E154
:104960000E94920FCC3309F057C025C0C63461F5C0
:10497000C0914C018C2F0E94EA1361E00E94920FBB
:104980008C2F0E94CB1361E0845F0E94920F61E044
:1049900080E10E94920F61E081E10E94920F61E04C
:1049A00082E10E94920F61E083E10E94920F61E038
:1049B00084E10E94920F809150018F7090E061E03D
:1049C00008975CF160E029C0CC3889F5E0914C0192
:1049D0001E9FF0011124E851F94F61E084810E948B
:1049E000920F61E080E10E94920F61E081E10E94FC
:1049F000920F61E082E10E94920F61E083E10E94E8
:104A0000920F809150018F7090E061E008970CF058
:104A100060E084E10E94920F61E085E10E94920FC4
:104A200061E086E10E94920F61E087E1A1C4CE318E
:104A300049F5C0E061E08C2F0E94920FCF5FC0313A
:104A4000C9F761E080E10E94920F61E081E10E947C
:104A5000920F61E082E10E94920F61E083E10E9487
:104A6000920F61E084E10E94920F61E085E10E9473
:104A7000920F809150018F7090E061E008978CF266
:104A800060E0CFCFC43609F0A6C00E94E11D8111BD
:104A900019C0E0914C011E9FF0011124E851F94F1B
:104AA00047E064E081810E94F60AFF24F394F80E47
:104AB000C0E0CF1508F025C361E08C2F0E94920F53
:104AC000CF5FF7CF8130C9F4E0914C011E9FF00118
:104AD0001124E851F94F43E060E081810E94F60A19
:104AE000FF24F394F80EC0E0CF1508F00AC361E08C
:104AF0008C2F0E94920FCF5FF7CF823011F5C0E06C
:104B000079E0F72EE0E9EE2E80914C01E091E0068D
:104B1000EE9EF0011124F89EE00DF11D1124E05AE3
:104B2000FD4F80850E942A0B90E02C2F30E08217E9
:104B300093070CF4E6C261E08C2F0E94920FCF5FC6
:104B4000E3CF833009F0DDC2C0E059E0852E60E993
:104B5000962EC090E006D12C80914C01E82EF12CCD
:104B60009C9CF0019D9CF00D1124889EE00DF11D90
:104B70001124E05AFD4F80850E942A0B90E02C2FD3
:104B800030E0821793070CF4BCC241E050E0C8301B
:104B900010F440E050E08E9CC0018F9C900D1124D9
:104BA0009C9C90019D9C300D1124820F931F805A74
:104BB0009D4FFC01E40FF51F608170E08C2F877022
:104BC00002C0759567958A95E2F761708C2F0E94F7
:104BD000920FCF5FBECFC03509F0E9C0E0904C0125
:104BE0008091E0068E2C912CE9E0EE9E700111245C
:104BF000F70120E9829FE00DF11D1124E05AFD4FDD
:104C000080850E942A0B582E189DF001199DF00DE9
:104C10001124E851F94F828190E0652D70E06F5FBB
:104C20007F4F0E94EE2D662E5394C0E040E9442E43
:104C3000AF014E5F5F4F6A01C51550F0C0E089E0DB
:104C4000889D7001899DF00C112430E9D32E44C059
:104C50000E94E11D6091E00670E090E0880F991FCE
:104C600041E050E0C83010F440E050E0469E900132
:104C7000479E300D11242E0D3F1D205A3D4F820FAF
:104C8000931FFC01E40FF51F808190E02C2F27700B
:104C900002C0959587952A95E2F7382F31702091BB
:104CA0004A01211112C080FF07C0F6018081652DE5
:104CB0000E94CE2DC91751F0F6018081652D0E940A
:104CC000CE2DC91302C021E001C0232F622F8C2FEB
:104CD0000E94920FCF5FB0CF8091E006F701D89E7F
:104CE000E00DF11D1124E05AFD4F80850E94260B36
:104CF00090E02C2F30E0821793073CF061E080E1D8
:104D00008C0F0E94920FCF5FE7CF8091E70680FF64
:104D10001FC0C0E060E08C2F0E94920FCF5FC031B7
:104D2000C9F7C0E06C2F8EE60E94C41A2091500192
:104D30002F7130E061E0203131050CF060E00E941D
:104D4000920FCF5FCA3071F761E089E10E94920F44
:104D50000E94E11D209150012F7030E061E0283069
:104D600031050CF060E0805F0E94920F611002C07C
:104D70006D2F01C060E084E10E94920FF1E06F129C
:104D800002C06D2F01C060E085E10E94920F22E019
:104D9000621202C06D2F01C060E086E10E94920F96
:104DA00033E0631611F060E040CE6D2F3ECECA3581
:104DB00009F066C0C0E0A9E09A2EB0E98B2EE09021
:104DC0004C01F12C8091E0069E9C60019F9CD00CD0
:104DD0001124F601889EE00DF11D1124E05AFD4FCB
:104DE00080850E942A0B90E02C2F30E082179307D9
:104DF00024F4C0E0F0E99F2E0CC061E08C2F0E94EB
:104E0000920FCF5FDCCF61E080E18C0F0E94920FA8
:104E1000CF5F8091E006F601989EE00DF11D112410
:104E2000E05AFD4F80850E94260B90E02C2F30E049
:104E30008217930744F7C0E089E08E9D60018F9D43
:104E4000D00C1124E0E9FE2E8091E006F601F89ED8
:104E5000E00DF11D1124E05AFD4F47E066E080852A
:104E60000E94F60A90E02C2F30E0821793070CF492
:104E700081C261E084E18C0F0E94920FCF5FE4CF8A
:104E8000C930B9F4C0E0D0268C2F0E942F0C8823A3
:104E900011F06D2D01C061E08C2F0E94920FCF5F49
:104EA000C03191F761E080E10E94920F61E081E101
:104EB00036C1CA3089F4C0E0D0268C2F0E942F0C56
:104EC000882311F06D2D01C061E08C2F0E94920F9C
:104ED000CF5FC03191F74EC2C43011F578EEE72EA6
:104EE00076E0F72EC0E0D02680915101882369F04A
:104EF000F701808180FD07C08C2F0E942F0C882332
:104F000021F06D2D03C060E001C061E08C2F0E9494
:104F1000920FCF5FF5E0EF0EF11CC03129F72AC2E6
:104F2000C53099F468EEE62E66E0F62EC0E0F70193
:104F30006081669561708C2F0E94920FCF5FF5E0C3
:104F4000EF0EF11CC03199F715C2C63049F4C0E02C
:104F500061E08C2F0E94920FCF5FC031C9F70AC267
:104F6000CB3009F055C058EEE52E56E0F52EC0E0E6
:104F70000E94E11D811106C0F701608165FB662773
:104F800060F918C0813029F4F70160816295617081
:104F900011C0823031F4F7016081661F6627661FF9
:104FA00009C0833031F4F701608166FB662760F940
:104FB00001C060E08C2F0E94920FCF5FF5E0EF0EF2
:104FC000F11CC031A9F661E080E10E94920F61E01E
:104FD00081E10E94920F61E082E10E94920F61E004
:104FE00083E10E94920F61E084E10E94920F61E0F0
:104FF00085E10E94920F0E94E11D209150012F70C7
:1050000030E061E0283031050CF060E0805F06CDD3
:10501000C43199F480914801813009F400C2823092
:1050200009F40FC2833009F023C29CEF909343012F
:1050300096E69093440190ED0BC2C23009F054C043
:10504000E12CF12C39E0C32E40E9942ECE2D0E94A4
:10505000E11D882311F0833021F48C2F0E942F0C46
:1050600036C0813089F1823089F58E2D0E942F0C57
:10507000882311F0DD2051F18091E006CE9CF001F3
:10508000CF9CF00D1124989EE00DF11D1124E05AE3
:10509000FD4F8081218130E0280F311D8281280F52
:1050A000311D8381280F311D8481280F311D858199
:1050B000280F311D8681280F311D8781280F311D52
:1050C00081E0232B21F402C081E001C080E0682F41
:1050D0008C2F0E94920F2FEFE21AF20A30E1E316B2
:1050E000F10409F0B3CF0DC0C33041F5C0E08C2FFF
:1050F0000E942F0C682F8C2F0E94920FCF5FC0311F
:10510000B1F761E080E10E94920F61E081E10E94CD
:10511000920F61E082E10E94920F61E083E10E94C0
:10512000920F0E94E11D209150012F7030E061E04C
:10513000283031050CF060E0805F1AC1CD3009F0F5
:1051400076C0E12CF12C99E0C92E20E9922ECE2DCB
:105150008E2D0E942F0C882311F0DD2039F18091D3
:10516000E006CE9CF001CF9CF00D1124989EE00D3E
:10517000F11D1124E05AFD4F2081818190E0820FC2
:10518000911D2281820F911D2381820F911D248107
:10519000820F911D2581820F911D2681820F911D05
:1051A0002781820F911D61E0892B09F460E08C2F2B
:1051B0000E94920F4FEFE41AF40A50E1E516F10451
:1051C00031F680E6E82E82E0F82EC0E1F70120E11A
:1051D00060E061111CC03081818190E0830F911DDE
:1051E0003281830F911D3381830F911D3481830F91
:1051F000911D3581830F911D3681830F911D37815C
:10520000830F911D61E0892B19F460E001C061E01A
:10521000215039962111DDCF61708C2F0E94920FA1
:10522000CF5F80E9E80EF11CC83181F6A3C0C7301A
:1052300009F049C0C0E0D0260E94F11D880F880FF8
:105240008C0F189FF0011124E851F94F908193FDC4
:105250001FC090FD06C00E942F0C882321F06D2DE9
:1052600003C060E001C061E08C2F0E94920F0E9499
:10527000F11D880F880F8C0F189FF0011124E85141
:10528000F94F60816695617084E08C0F0E94920FE7
:105290000E94F11D880F880F8C0F189FF0011124B8
:1052A000E851F94F608163FB662760F988E08C0F55
:1052B0000E94920FCF5FC43009F0BECF0E94F11D53
:1052C00061E0845F55C0CF3051F561E080915701B6
:1052D000811101C060E080E00E94920F61E0809146
:1052E0004701811101C060E081E00E94920F60914E
:1052F000010182E00E94920F61E080910001811122
:1053000001C060E083E00E94920F809150018F7194
:1053100090E061E040970CF060E084E029C0CC3080
:1053200049F580915201882309F481C061E086E04B
:105330000E94920F61E089E00E94920F61E08AE092
:105340000E94920F61E08BE00E94920F61E08EE07C
:105350000E94920F61E085E10E94920F61E086E178
:105360000E94920F61E087E10E94920F61E080E06D
:105370000E94920F0E94032281110E9415118091B8
:105380000301843151F080915101811102C061E02B
:1053900001C06D2F88E10E94920F0E94E62180914A
:1053A00050018F5F809350016FE070E080E090E0EB
:1053B0000E940C210E94D000809157018823F1F0B7
:1053C0008091530190915401A0915501B0915601E3
:1053D00088519C4FAF4FBF4F2FB7F8944091EC01CD
:1053E0005091ED016091EE017091EF012FBF841794
:1053F0009507A607B70710F40E94ED0980915201A6
:10540000811106C080915101811102C07092510139
:10541000A114B10409F429C90E94000021C99CEF1C
:105420009093430196E69093440192E311C08091DA
:1054300050018F7190E061E040970CF498CF60E0EC
:1054400096CF98EF9093430196E49093440192EFA6
:10545000909345019EE990934601837080934801A3
:1054600090915001911186CF8F5F8093480182CF38
:10547000109246011092450110924401109243018E
:10548000ECCFCF93C82F0E942F0C81110CC08C2F12
:105490000E946C0B80914701882329F061E08C2FDA
:1054A000CF910C94770CCF91089520910401822F15
:1054B00090E0A0E0B0E09C01AD0128523109410923
:1054C000510960E57FEC8EEF9FEF0E94BE2D28EC26
:1054D00030E040E050E00E94372CDA01C901885BDF
:1054E0009449AE4FBF4FAC01BD01E3E0440F551FDF
:1054F000661F771FEA95D1F74115510588E06807C7
:10550000710568F482E080936501DB01CA0133E034
:10551000B695A795979587953A95D1F70CC083E0F6
:1055200080936501DB01CA0126E0B695A7959795A2
:1055300087952A95D1F790936401809363018091B8
:10554000630190916401909387008093860080911D
:10555000650180618093810008958BE291E09093D2
:10556000FC078093FB0780915E0290915F028B5F46
:10557000974071F4E0910E08F0910F0890818091AE
:10558000100880958923808310925F0210925E023A
:10559000089510923B0710923A0788EE93E0A0E03E
:1055A000B0E080933C0790933D07A0933E07B093F3
:1055B0003F0729E131E030933907209338071092F3
:1055C000FE071092FD078093FF0790930008A093B9
:1055D0000108B09302088BE291E09093FC0780935E
:1055E000FB071092120810921108109214081092E2
:1055F00013081092160810921508109218081092AD
:105600001708609119086E7F6D7F60931908669581
:10561000617081E068270E94A12061E081E00E9422
:10562000D020EFEAF0E0E491E0930B08EBE9F0E042
:10563000E491F0E0EE0FFF1FE057FF4F859194914A
:1056400090930D0880930C0860E085E00E94D020C4
:105650008091190881FD04C061E085E00E94A120CD
:1056600085E080930708E3EBF0E0E491E09308081D
:10567000EFE9F0E0E491F0E0EE0FFF1FEA57FF4F93
:105680008591949190930A08809309088BEF97E095
:105690009093FA078093F9071092450710924407F8
:1056A0001092470710924607109249071092480738
:1056B00010924B0710924A0710924D0710924C0718
:1056C00010924F0710924E071092510710925007F8
:1056D00010925307109252071092550710925407D8
:1056E00010925707109256071092590710925807B8
:1056F00010925B0710925A0710925D0710925C0798
:1057000010925F0710925E07109261071092600777
:105710001092630710926207109265071092640757
:10572000109267071092660708958F929F92AF922A
:10573000BF92CF92DF92EF92FF92CF93DF93EC0173
:10574000688179818A819B81611571058105910547
:1057500021F464E279ED8BE597E02DE133EF41E050
:1057600050E00E94372C49015A019B01AC01A7EA85
:10577000B1E40E94562C6B017C01ACEEB4EFA501A4
:1057800094010E94642CDC01CB018C0D9D1DAE1D8B
:10579000BF1DB7FF03C00197A109B0488883998353
:1057A000AA83BB83BC01CD019F77DF91CF91FF908E
:1057B000EF90DF90CF90BF90AF909F908F90089523
:1057C0008F929F92AF92BF92CF92DF92EF92FF9211
:1057D0006091110170911201809113019091140157
:1057E000611571058105910521F464E279ED8BE580
:1057F00097E02DE133EF41E050E00E94372C490162
:105800005A019B01AC01A7EAB1E40E94562C6B013E
:105810007C01ACEEB4EFA50194010E94642CDC0184
:10582000CB018C0D9D1DAE1DBF1DB7FF03C00197A1
:10583000A109B0488093110190931201A093130124
:10584000B0931401BC01CD019F77FF90EF90DF90E2
:10585000CF90BF90AF909F908F900895609311016B
:105860007093120180931301909314010895052EF3
:1058700097FB1EF400940E944E2C57FD07D00E9407
:10588000692C07FC03D04EF40C944E2C5095409597
:10589000309521953F4F4F4F5F4F089590958095DC
:1058A000709561957F4F8F4F9F4F08950E948B2C6D
:1058B000A59F900DB49F900DA49F800D911D112464
:1058C0000895B7FF0C94562C0E94562C821B930B04
:1058D0000895A1E21A2EAA1BBB1BFD010DC0AA1F31
:1058E000BB1FEE1FFF1FA217B307E407F50720F049
:1058F000A21BB30BE40BF50B661F771F881F991FC4
:105900001A9469F760957095809590959B01AC010C
:10591000BD01CF010895A29FB001B39FC001A39F15
:10592000700D811D1124911DB29F700D811D1124D8
:10593000911D08950E94DC2C08F481E00895E894FC
:1059400009C097FB3EF490958095709561957F4FC7
:105950008F4F9F4F9923A9F0F92F96E9BB27939575
:10596000F695879577956795B795F111F8CFFAF485
:10597000BB0F11F460FF1BC06F5F7F4F8F4F9F4FB6
:1059800016C0882311F096E911C0772321F09EE814
:10599000872F762F05C0662371F096E8862F70E07A
:1059A00060E02AF09A95660F771F881FDAF7880F54
:1059B0009695879597F90895990F0008550FAA0BAA
:1059C000E0E8FEEF16161706E807F907C0F0121612
:1059D0001306E407F50798F0621B730B840B950B15
:1059E00039F40A2661F0232B242B252B21F408956A
:1059F0000A2609F4A140A6958FEF811D811D089507
:105A00000E94132D0C94842D0E94762D38F00E9454
:105A10007D2D20F0952311F00C946D2D0C94732D99
:105A200011240C94B82D0E94952D70F3959FC1F30D
:105A3000950F50E0551F629FF001729FBB27F00D3C
:105A4000B11D639FAA27F00DB11DAA1F649F662791
:105A5000B00DA11D661F829F2227B00DA11D621FE0
:105A6000739FB00DA11D621F839FA00D611D221F9A
:105A7000749F3327A00D611D231F849F600D211D7E
:105A8000822F762F6A2F11249F5750409AF0F1F001
:105A900088234AF0EE0FFF1FBB1F661F771F881F6A
:105AA00091505040A9F79E3F510580F00C946D2D08
:105AB0000C94B82D5F3FE4F3983ED4F38695779528
:105AC0006795B795F795E7959F5FC1F7FE2B880F10
:105AD000911D9695879597F9089597F99F6780E8A6
